:1000000094C10000C3C10000C1C10000BFC1000015
:10001000BDC10000BBC10000B9C10000B7C10000F4
:10002000B5C10000B3C10000B1C10000AFC1000004
:10003000ADC10000ABC10000A9C10000A7C1000014
:10004000A5C10000A3C10000A1C100009FC1000024
:100050009DC100009BC1000099C100008CC400003C
:1000600095C1000061C3000036C300008FC10000CD
:100070008DC100008BC1000089C1000087C1000054
:1000800085C1000083C1000081C100007FC1000064
:100090007DC100007BC1000079C1000077C1000074
:1000A00075C1000073C1000071C100006FC1000084
:1000B0006DC100006BC1000069C1000067C1000094
:1000C00065C1000063C1000061C100005FC10000A4
:1000D0005DC100005BC1000059C1000057C10000B4
:1000E00055C10000F903FC03EB03EF03F3033304F2
:1000F000000404040A040E04120418041C0420045E
:10010000330426042A042E04005EBCE2613FDD8332
:10011000C29C7E20A3FD1F419DC3217FFCA2401EE7
:100120005F01E3BD3E6082DC237D9FC1421CFEA0D7
:10013000E1BF5D0380DE3C62BEE0025CDF81633DC7
:100140007C22C09E1D43A1FF4618FAA427799BC5B7
:1001500084DA3866E5BB5907DB856739BAE40658A7
:100160001947A5FB7826C49A653BD987045AB8E697
:10017000A7F91B45C6987A24F8A6441A99C7257B87
:100180003A6486D85B05E7B98CD2306EEDB3510F77
:100190004E10F2AC2F7193CD114FADF3702ECC9267
:1001A000D38D6F31B2EC0E50AFF1134DCE90722C57
:1001B0006D33D18F0C52B0EE326C8ED0530DEFB147
:1001C000F0AE4C1291CF2D73CA947628ABF5174937
:1001D0000856B4EA6937D58B5709EBB536688AD427
:1001E00095CB2977F4AA4816E9B7550B88D6346A17
:1001F0002B7597C94A14F6A8742AC896154BA9F707
:10020000B6E80A54D7896B35000021002400270086
:100210002A002D0030003300010100000401070115
:100220000A0100002200250028002B002E003100CA
:10023000340002010000050108010B0100000A0B57
:1002400002090C0D0E080703040100000000000065
:10025000000000000000000000000000000000009E
:10026000000000000000000012111000000000005B
:10027000000000000000000000000000000000007E
:100280000000000020002300260029002C002F0081
:100290003200000100000301060109010505050502
:1002A000070508080808020202020A0A08080404EE
:1002B000040401010101010101010303030303031C
:1002C0000303040707070C0C0C0C0C0C0C0C0202AB
:1002D000020206060606060606060B0B0B0B0B0BA8
:1002E0000B0B010210202008081020401020408035
:1002F00002010201080402010102040810204080EA
:100300008040201008040201800402018040201077
:1003100008040201080402010102040810204080C0
:100320000102040810204080EB0E11241FBECFEF05
:10033000D1E2DEBFCDBF00E00CBF13E0A0E0B2E031
:10034000E8EBF4E200E00BBF02C007900D92AA3D7B
:10035000B107D9F724E0AAEDB3E001C01D92A33B99
:10036000B207E1F711E0C5E9D1E000E006C021974E
:100370000109802FFE010E944E12C439D10780E08E
:100380000807A9F70E94B00B0C945A1239CECF92ED
:10039000DF92EF92FF920F931F93CF93DF936C0145
:1003A0007A018B01C0E0D0E0CE15DF0589F0D801DD
:1003B0006D918D01D601ED91FC910190F081E02DC0
:1003C000C6011995892B11F47E0102C02196ECCF4C
:1003D000C701DF91CF911F910F91FF90EF90DF90B8
:1003E000CF900895089580E090E00895FC01538D2A
:1003F000448D252F30E0842F90E0821B930B5417FF
:1004000010F0CF96089501970895FC01918D828D8B
:10041000981761F0828DDF01A80FB11D5D968C9158
:10042000928D9F5F9F73928F90E008958FEF9FEF63
:100430000895FC01918D828D981731F0828DE80F1F
:10044000F11D858D90E008958FEF9FEF0895FC01D9
:10045000918D228D892F90E0805C9F4F821B9109A6
:100460008F739927089583EE93E0F1DF21E0892BC4
:1004700009F420E0822F0895FC01848DDF01A80F8C
:10048000B11DA35ABF4F2C91848D90E001968F73BC
:100490009927848FA689B7892C93A089B1898C91DB
:1004A00080648C93938D848D981306C00288F389A1
:1004B000E02D80818F7D80830895EF92FF920F93CE
:1004C0001F93CF93DF93EC0181E0888F9B8D8C8D00
:1004D000981305C0E889F989808185FD23C0F62E2F
:1004E0000B8D10E00F5F1F4F0F731127E02E8C8DC7
:1004F000E8120BC00FB607FCFACFE889F9898081B2
:1005000085FFF5CFCE01B8DFF2CF8B8DFE01E80F6E
:10051000F11DE35AFF4FF0820B8FEA89FB8980813E
:10052000806207C0EE89FF896083E889F98980814C
:100530008064808381E090E0DF91CF911F910F91E3
:10054000FF90EF900895CF93DF93EC01888D88237F
:10055000C1F0EA89FB89808185FD05C0A889B98938
:100560008C9186FD0EC00FB607FCF5CF808185FF0C
:10057000F2CFA889B9898C9185FFEDCFCE017CDFC0
:10058000E8CFDF91CF91089580E090E0892B19F0BA
:100590006ADF811125C080E090E0892B41F080E086
:1005A00090E0892B21F00E94000081111CC080E0A6
:1005B00090E0892B41F080E090E0892B21F00E94AF
:1005C0000000811113C080E090E0892BA1F080E051
:1005D00090E0892B81F00E94000081110AC00895EB
:1005E0000E940000D8CF0E940000E1CF0E940000CE
:1005F000EACF0C94000008953FB7F8948091DB0394
:100600009091DC03A091DD03B091DE0326B5A89B99
:1006100005C02F3F19F00196A11DB11D3FBFBA2F94
:10062000A92F982F8827820F911DA11DB11DBC01F4
:10063000CD0142E0660F771F881F991F4A95D1F7B9
:1006400008950895DC01E0E0615038F08D91E827CD
:10065000F0E0E85FFE4FE491F7CF8E2F0895CF933F
:10066000DF93CDB7DEB729970FB6F894DEBF0FBE84
:10067000CDBFFC012081203111F1BE016F5F7F4FA2
:1006800059D468E0CE010196DDDF9985891315C044
:100690008D818F3359F018F48F3189F009C08F356F
:1006A00019F08F3741F004C08BE00AC08AE008C01F
:1006B000807F803F11F48CE003C080E001C089E0BE
:1006C00029960FB6F894DEBF0FBECDBFDF91CF9154
:1006D00008950E9456121F920F920FB60F92112486
:1006E0000BB60F922F933F934F935F936F937F932C
:1006F0008F939F93AF93BF93EF93FF9383EE93E01A
:10070000BBDEFF91EF91BF91AF919F918F917F9150
:100710006F915F914F913F912F910F900BBE0F9072
:100720000FBE0F901F9018951F920F920FB60F9249
:1007300011240BB60F922F938F939F93EF93FF93F8
:10074000E091F303F091F4038081E091F903F091DB
:10075000FA0382FD12C090818091FC038F5F8F733A
:100760002091FD03821751F0E091FC03F0E0ED5180
:10077000FC4F958F8093FC0301C08081FF91EF9126
:100780009F918F912F910F900BBE0F900FBE0F90E6
:100790001F901895362F90E0FC01E45CFD4F4491CA
:1007A000FC01EE51FD4F2491FC01E456FD4F949164
:1007B000992309F46BC0442309F455C050E0FA01B1
:1007C0003197E231F10508F04EC08827EE58FF4F0F
:1007D0008F4F0C944E12809180008F7707C08091CC
:1007E00080008F7D03C080918000877F8093800090
:1007F0003AC084B58F7702C084B58F7D84BD33C085
:100800008091B0008F7703C08091B0008F7D80937E
:10081000B00029C0809190008F7707C08091900030
:100820008F7D03C080919000877F809390001BC0D4
:100830008091A0008F7707C08091A0008F7D03C0BA
:100840008091A000877F8093A0000DC0809120013F
:100850008F7707C0809120018F7D03C08091200198
:10086000877F80932001E92FF0E0EE0FFF1FEE5D00
:10087000FD4FA591B4918FB7F894EC91311103C05D
:1008800020952E2301C02E2B2C938FBF0895CF933C
:10089000DF9390E0FC01EE51FD4F2491FC01E45602
:1008A000FD4F8491882361F190E0880F991FFC012E
:1008B000E85FFD4FC591D491FC01EE5DFD4FA59120
:1008C000B491611109C09FB7F89488812095822363
:1008D0008883EC912E230BC0623061F49FB7F894AB
:1008E0003881822F809583238883EC912E2B2C9343
:1008F0009FBF06C08FB7F894E8812E2B28838FBF47
:10090000DF91CF9108958F929F92AF92BF92CF9235
:10091000DF92EF92FF926B017C016EDE4B015C0176
:10092000C114D104E104F104E9F066DEDC01CB017D
:1009300088199909AA09BB09883E9340A105B10508
:1009400078F321E0C21AD108E108F10888EE880E98
:1009500083E0981EA11CB11CC114D104E104F10470
:1009600021F7DECFFF90EF90DF90CF90BF90AF9058
:100970009F908F9008951F920F920FB60F9211249F
:100980002F933F938F939F93AF93BF938091DF03F8
:100990009091E003A091E103B091E2033091DA037A
:1009A00023E0230F2D3720F40196A11DB11D05C0B2
:1009B00026E8230F0296A11DB11D2093DA03809330
:1009C000DF039093E003A093E103B093E2038091EF
:1009D000DB039091DC03A091DD03B091DE0301966F
:1009E000A11DB11D8093DB039093DC03A093DD0375
:1009F000B093DE03BF91AF919F918F913F912F9163
:100A00000F900FBE0F901F901895FC0190810180F0
:100A1000F281E02DF8948181892B81832281892FB5
:100A2000809528232283A7E0B0E01197F1F7218178
:100A300082238183A3E2B0E01197F1F7808178945B
:100A4000EFECF0E03197F1F7982381E009F480E0D2
:100A50000895EF92FF920F931F93CF93DF937C0142
:100A600008E010E0C0E0D1E0C701CFDF8111CD2B5D
:100A7000DD0F01501109C1F78C2FDF91CF911F912C
:100A80000F91FF90EF900895FC0190810180F28119
:100A9000E02D892F809560FF12C0F8942281822377
:100AA00082838181892B8183A3E2B0E01197F1F7E2
:100AB0008281982B9283789487ED90E011C0F8940E
:100AC0002281822382838181892B8183AFEFB0E0F1
:100AD0001197F1F78281982B928378948FE090E0C0
:100AE0000197F1F70895CF92DF92EF92FF920F9363
:100AF0001F93CF93DF931F92CDB7DEB76C01E62E25
:100B000008E010E0FF24F39461E08F2D8E2109F4BA
:100B100060E0C6014983B8DFFF0C0150110949812B
:100B20000115110589F7411115C0F894D6011196E8
:100B3000ED91FC91129791818C918095892381830D
:100B40001196ED91FC91129792818C918095892359
:100B5000828378940F90DF91CF911F910F91FF9036
:100B6000EF90DF90CF900895CF92DF92EF92FF92B7
:100B70000F931F93CF93DF931F92CDB7DEB78C01F6
:100B8000F62E40E065E57983AEDFCF2C7981D72E54
:100B9000760188E0E80EF11CF60161916F0140E0FA
:100BA000C801A1DFCE14DF04B9F70F90DF91CF9118
:100BB0001F910F91FF90EF90DF90CF900895FC016F
:100BC00090810180F281E02DF8948181292F209578
:100BD0008223818378948DE743E050E0815021F1B6
:100BE000DA011197F1F730813923C1F3F89482814A
:100BF000822382838181892B81837894ABE7B7E05C
:100C00001197F1F7F894818128232183A3E1B1E0C2
:100C10001197F1F78081982381E009F080E07894C2
:100C2000E3E6F6E03197F1F708958F929F92AF9245
:100C3000BF92CF92DF92EF92FF92CF93DF93A0917A
:100C40008704882311F03A2F01C030E08091880496
:100C500090E0880F991F8E579D4FC0908D04D090C3
:100C60008E04E0908F04F090900440E050E0BA01D0
:100C7000FC01C591D49128812A2323130FC04A0176
:100C80005B012FEF821A920AA20AB20A4C155D0587
:100C90006E057F0538F4B501A401EACF342F252F66
:100CA000CB0104C030E020E080E090E0632F722FA1
:100CB000DF91CF91FF90EF90DF90CF90BF90AF90FA
:100CC0009F908F900895009761F0FC0101900020A3
:100CD000E9F73197AF01481B590BBC0183EE93E054
:100CE00056CB80E090E00895CF93DF93ECDFEC01EA
:100CF00081E992E0E8DF8C0F9D1FDF91CF9108958D
:100D0000E091E303F091E4030190F081E02D682F7E
:100D100083EE93E019948F929F92AF92BF920F93BC
:100D20001F93CF93DF93CDB7DEB7A1970FB6F8949B
:100D3000DEBF0FBECDBF19A2423008F44AE08E01DB
:100D40000F5D1F4F842E912CA12CB12CA501940175
:100D50000E94AC0FE62FB901CA0101501109EA3017
:100D600014F4E05D01C0E95CD801EC93232B242B43
:100D7000252B61F7C801A7DFA1960FB6F894DEBF57
:100D80000FBECDBFDF91CF911F910F91BF90AF905C
:100D90009F908F9008954F925F926F927F928F9263
:100DA0009F92AF92BF92CF92DF92EF92FF926B0130
:100DB0007C01B42E9B01AC010E943512882319F0EE
:100DC0008DEC93E027C026013701E89477F82FEFE8
:100DD0003FEF4FE75FE7C301B2010E943512811177
:100DE0000DC02FEF3FEF4FE75FE7C301B2010E9455
:100DF000421018161CF481ED93E00CC02FEF3FEF6A
:100E00004FE75FE4C701B6010E948C1118167CF40D
:100E100085ED93E0FF90EF90DF90CF90BF90AF9083
:100E20009F908F907F906F905F904F904CCF2FEF5F
:100E30003FEF4FE75FECC701B6010E94421087FD0C
:100E4000E7CF20E030E0A901C701B6010E944210BF
:100E500087FF08C08DE254DF4C01F7FAF094F7F8F1
:100E6000F09402C0812C912CA12C60E070E080E015
:100E70009FE3AB1441F020E030E040E251E40E94F7
:100E80004610A394F6CF9B01AC01C701B6010E94A6
:100E9000DE0F2B013C010E94AE106B017C010E9411
:100EA000DA109B01AC01C301B2010E94DD0F2B01DE
:100EB0003C014AE0C701B6012EDF7C01E80CF91CB9
:100EC000BB2021F08EE21CDFE80EF91EDB2CDD20BA
:100ED00019F120E030E040E251E4C301B2010E9488
:100EE00090112B013C010E94AE104B01A12CB12CA2
:100EF0004AE0C501B4010FDFE80EF91EC501B401D7
:100F00000E94DA109B01AC01C301B2010E94DD0F07
:100F10002B013C01DA94DBCFC701FF90EF90DF900B
:100F2000CF90BF90AF909F908F907F906F905F9089
:100F30004F900895EF92FF920F931F93CF93DF93FB
:100F40007C018B01C2E9D4E08D819E8138DEB7013E
:100F50008D819E8109DE40E06EEB8D819E81C3DD37
:100F60008D819E8176DDF80180838D819E8171DD8A
:100F7000F80181838D819E816CDDF80182838D81F2
:100F80009E8167DDF80183838D819E8162DDF8019A
:100F900084838D819E815DDDF80185838D819E81B5
:100FA00058DDF80186838D819E8153DDF8018783AA
:100FB0008D819E814EDDF80180878D819E81DF913C
:100FC000CF911F910F91FF90EF90F9CDAF92BF920B
:100FD000CF92DF92EF92FF920F931F93CF93DF9305
:100FE0001F92CDB7DEB75C01D62EE72EFC018585BA
:100FF000811104C0C501E3DD811106C0F50113862E
:101000001586148680E061C040E060EFC5016BDDAD
:1010100001E0F12CC12C11E0C501F7DC682FC501FE
:101020006983F3DC6981613019F48130B9F432C02D
:101030004F2D50E068131BC0F5018385181730F45D
:10104000E40FF51F8381802349F402C0181731F0A3
:1010500060E0193058F4F501148708C0F501EF0D70
:10106000F11D8381802B838361E009C0C12EF501CE
:10107000E40FF51F9381802F809589238383C50119
:1010800003DD1F5F000F11F4F39401E0F7E0FF159B
:1010900008F0C2CF113408F4B1CFF501C386C110F6
:1010A00002C081E08587F5018381882309F4A6CFFA
:1010B000D5011396ED2DFE2D9501255F3F4F8D91A6
:1010C0008193A217B307D9F781E00F90DF91CF91F9
:1010D0001F910F91FF90EF90DF90CF90BF90AF9056
:1010E00008954F925F926F927F928F929F92AF92EC
:1010F000BF92CF92DF92EF92FF920F93CF93DF9345
:10110000CDB7DEB728970FB6F894DEBF0FBECDBFC0
:101110006B017C0149015A0101110DC026E636E63A
:1011200046EE5FE30E94901120E030E040E052E4A0
:1011300045D76B017C0120E030E044E752E4C70171
:10114000B6013CD72B013C0120E030E048E852E4F6
:10115000C701B60132D72AE939E949E95FE30E94BC
:1011600090119B01AC01C301B20128D72B013C01B6
:1011700022E133E840EC5DE3C501B4010E94901127
:101180009B01AC01C301B20119D720E030E040E07F
:101190005FE30E9490112B013C0120E030E04EE91A
:1011A00052E40E948C1118160CF058C1A701960148
:1011B000C701B6010E9490112B013C01A5019401C9
:1011C000C501B4010E9490116D837E838F8398873F
:1011D00021E133E243E050E4C701B6010E949011DF
:1011E00029E134E849E252E4E8D669837A838B83C3
:1011F0009C8326E13BE442E251E4C501B4010E9434
:1012000090119B01AC0169817A818B819C81D6D63A
:1012100069837A838B839C8328E436E246E65EEB1F
:10122000C701B6010E949011A50194010E9490117E
:101230009B01AC0169817A818B819C81BFD66983D6
:101240007A838B839C8320EE3FE040EE5BEBC3010F
:10125000B2010E9490119B01AC0169817A818B815E
:101260009C81ACD669837A838B839C8328EF37E893
:1012700040E65DEB6D817E818F8198850E949011A3
:101280009B01AC0169817A818B819C8197D66983AE
:101290007A838B839C832CEA3DE041EA5AE3C301C5
:1012A000B2010E949011A50194010E9490119B012E
:1012B000AC0169817A818B819C8180D669837A8334
:1012C0008B839C8328EC3FE84FE55AE3C701B601C6
:1012D0000E9490112D813E814F8158850E9490116E
:1012E0009B01AC0169817A818B819C8167D669837E
:1012F0007A838B839C8321EF3BE845E056EBC30167
:10130000B2010E9490112D813E814F8158850E942B
:1013100090119B01AC0169817A818B819C814ED6B1
:101320002B013C0120E030E040E551E4C501B4016F
:10133000A9D687FF51C020E030E040EA52E4C7015F
:10134000B601EAD787FD48C020E030E040EE52E425
:10135000C701B60197D618160CF492C0A5019401E6
:1013600060E070E080E591E428D620E030E040E8DD
:101370005EE3D6D74B015C0120E030E04EEB52E457
:10138000C701B6011AD66B017C0120E030E0A9014B
:10139000C3D7181644F4A701960160E070E088E80E
:1013A00091E40BD607C020E030E048E851E4C701E3
:1013B000B60104D62EE33DEE40E75DE3B1D70E94CF
:1013C000F7119B01AC01C501B401AAD79B01AC0187
:1013D000B201C301F2D540C020E030E04AEA52E455
:1013E000C501B40199D718160CF038C020E030E0E0
:1013F00040EA52E4C701B6018FD787FD2FC020E035
:1014000030E04EEA52E4C701B6013CD6181634F17A
:1014100020E030E04AEA52E4C501B401CED52DEC1B
:101420003CEC4CEC5DE37CD74B015C01A7019601E1
:1014300060E070E08EEA92E4C0D52DEC3CEC4CE428
:101440005EE36ED79B01AC01C501B40169D79B0176
:10145000AC01B201C301B2D52B013C0101110DC099
:1014600020E030E040E052E4B201C301A6D526E816
:1014700038E34EE05FE354D70EC0B201C3010BC0A6
:1014800020E030E04AEA52E4C501B40145D718161D
:101490000CF4B5CFE3CF6B017C01C701B6012896F0
:1014A0000FB6F894DEBF0FBECDBFDF91CF910F9185
:1014B000FF90EF90DF90CF90BF90AF909F908F9074
:1014C0007F906F905F904F900895CF92DF92EF9250
:1014D000FF920F931F93CF93DF93CDB7DEB7C05426
:1014E000D1400FB6F894DEBF0FBECDBF2FB7F89432
:1014F0008091DF039091E003A091E103B091E203BA
:101500002FBF4091890450918A0460918B0470919F
:101510008C048C019D01041B150B260B370BB901A4
:10152000A801403D57406105710518F48091910470
:10153000B1C08093890490938A04A0938B04B093E4
:101540008C041092840410928304109282041092EE
:1015500081041092800461E0809185041BD96AEFB8
:1015600070E080E090E0CFD961E0809185048FD970
:1015700060E0809185040ED964E170E080E090E045
:10158000C2D9F89461E08091850404D98BE990E098
:101590000197F1F762E08091850479D983E290E0C8
:1015A0000197F1F780E041DB672B682B692B21F471
:1015B0001092910478943BC081E037DB672B682B55
:1015C000692BB1F38E010F5F1F4F6E012FEBC21A13
:1015D0002EEFD20A780180E028DBF7016083718367
:1015E0008283938381E021DBF701648375838683A3
:1015F0009783F8E0EF0EF11CEC14FD0461F778948A
:1016000020E030E0F8014081518162817381C48023
:10161000D580E680F780411551056105710529F0F7
:10162000C114D104E104F10421F41092910480E08A
:1016300031C0F90183E0F595E7958A95E1F7E05827
:10164000FB4F8081880F4C155D056E057F0508F402
:10165000816080832F5F3F4F085F1F4F2832310525
:1016600089F62091840430E04091800480918104C7
:1016700090E0840F911D40918204840F911D409150
:101680008304840F911D99272817390771F681E08B
:1016900080939104C05CDE4F0FB6F894DEBF0FBE9E
:1016A000CDBFDF91CF911F910F91FF90EF90DF9011
:1016B000CF900895CF92DF92EF92FF92CF93DF9376
:1016C000C82F03DF882309F440C0909186049B3023
:1016D00031F008F43AC09551923040F036C0609134
:1016E000820470E080E090E065D522C0D091820451
:1016F0006D2F6F7770E080E090E05ED520E030E005
:1017000040E853E40DD66B017C0140918304642FC3
:1017100070E080E090E050D59B01AC01C701B601BC
:101720004DD42DEC3CEC4CEC5DE3FAD5D7FD905854
:10173000CC2379F026E636E646EE5FE3F1D520E0ED
:1017400030E040E052E43AD404C060E070E080EC65
:101750009FE7DF91CF91FF90EF90DF90CF900895BA
:10176000CF93DF93CDB7DEB769970FB6F894DEBF9E
:101770000FBECDBF789484B5826084BD84B581608E
:1017800084BD85B5826085BD85B5816085BD80914C
:101790006E00816080936E001092810080918100C4
:1017A00082608093810080918100816080938100BC
:1017B000809180008160809380008091B10084607E
:1017C0008093B1008091B00081608093B0008091DF
:1017D000910082608093910080919100816080935C
:1017E0009100809190008160809390008091A10091
:1017F00082608093A1008091A10081608093A1000C
:101800008091A00081608093A0008091210182607E
:101810008093210180912101816080932101809139
:10182000200181608093200180917A008460809300
:101830007A0080917A00826080937A0080917A00A9
:10184000816080937A0080917A00806880937A002A
:101850001092C100E091F303F091F40382E08083E1
:10186000E091EF03F091F0031082E091F103F09129
:10187000F2038FEC80831092FB03E091F703F09169
:10188000F80386E08083E091F503F091F603808110
:1018900080618083E091F503F091F6038081886098
:1018A0008083E091F503F091F60380818068808366
:1018B000E091F503F091F60380818F7D808360EDE8
:1018C00077E080E090E01FD862E0809185040E947C
:1018D000470480E398EFAFEFBFEF809389049093C4
:1018E0008A04A0938B04B0938C04E0919704F09148
:1018F0009804138615861486DF011B9633961E9274
:10190000AE17BF07E1F710929604FF24F394BE01CF
:10191000665F7F4F809197049091980457DB8823EE
:1019200009F44BC067E0CE010A960E942203998910
:101930008913EDCF80919204811122C08091970488
:10194000909198043CD9BE01665F7F4F80919704C7
:101950009091980409D940E064EB809197049091AC
:101960009804C1D880919704909198044ED8E82E9D
:10197000809197049091980422D9EE2009F483C0B5
:10198000BE016F5F7F4FCE010A96D4DAE0909304D8
:10199000CE010A960E942F038E1518F480919304AD
:1019A00004C0CE010A960E942F0380939304809175
:1019B00096048F5F80939604AACF52E4352E60ED93
:1019C00077E080E090E00E9483047FDD882379F156
:1019D000809186048B3011F150F18551823038F5B9
:1019E0006091800470E080E090E0E4D320E030E09B
:1019F00040E853E495D46B017C016091810470E070
:101A000080E090E0D9D39B01AC01C701B601D6D2EA
:101A10002DEC3CEC4CEC5DE383D406C0609180047B
:101A200070E080E090E0C6D36B017C0106C0C12C61
:101A3000D12C40ECE42E4FE7F42E80E03BDE6A8BA5
:101A40007B8B8C8B9D8B81E035DE6E8B7F8B888FC3
:101A5000998FA7019601C701B60107D5811116C05C
:101A60002A893B894C895D89CA01B901FED481115B
:101A70000DC02E893F89488D598DCA01B901F5D411
:101A8000882351F003C0F09292047ACF8FE593E05F
:101A90002BD90E94C40293CF8CE793E025D98DE522
:101AA00093E022D986EA93E01FD980917B00877F5B
:101AB00080937B0030927C0080917A0080648093D8
:101AC0007A0080917A0086FDFCCF20917800809189
:101AD000790030E0382BC901330FAA0BBB0B9C01F6
:101AE000AD012055310941095109A4E6B0E02AD2DF
:101AF0002EE031E040E050E009D229013A0157FFE1
:101B00000BC08DE2FDD866277727CB0164197509D4
:101B1000860997094AE003C04AE0C301B201FBD835
:101B200082E192E0E1D88CE593E0DED88EE192E0AC
:101B3000DBD88DE392E0C7D8809197049091980408
:101B40003ED840E06CEC80919704909198040E94FC
:101B500073054091920464E48091970490919804F5
:101B60000E947305809194048823E9F08091930486
:101B70008A3049F08B3061F0893079F46EE570E09D
:101B800080E090E00EC06CEB70E080E090E009C077
:101B900067E771E080E090E004C06EEE72E080E004
:101BA00090E00E9483048BE692E09ED88CE593E05F
:101BB0009BD880E792E087D8E0919704F091980451
:101BC000138615861486DF011B96CF0103961E929D
:101BD000A817B907E1F7BE01665F7F4FCF01F6D9BD
:101BE000882329F067E0CE010A960E942203BE01F5
:101BF0006F5F7F4FCE010A969DD968E0CE010196B6
:101C00000E9422039985891382C099818A81692F54
:101C100070E0782B8A858232B9F170F5803109F055
:101C200084C0188575956795072E000C880B990B55
:101C3000C3D220E030E040E85EE3BFD14B015C015D
:101C4000612F70E08F81681B7109072E000C880BD3
:101C5000990BB2D22B013C01612F70E080E090E043
:101C6000A9D29B01AC01C301B20110D29B01AC010E
:101C7000C501B401A3D138C0883231F08B3309F0EB
:101C800054C090FD49C01AC08D818F3391F190F4FA
:101C90008F3109F04AC093E0759567959A95E1F701
:101CA000072E000C880B990B87D220E030E040E033
:101CB0005FE319C08F3561F08F37B9F5072E000C3F
:101CC000880B990B79D220E030E040E85DE30BC04F
:101CD00075956795072E000C880B990B6DD220E047
:101CE00030E040E05EE31CD3B62EA72E182F092F5C
:101CF0001CC07595679575956795072E000C880B28
:101D0000990B5AD220E030E040E85EE3ECCF30E0BF
:101D100020E09EEF82EC0BC0B12CA12C10EC0FE761
:101D200030E020E090EC8FE702C09501C80142E06E
:101D3000432E522E692E782EC301B2012CD881E990
:101D400092E00E9463068CE593E00E94740684E9A9
:101D500092E00E9474068CE593E00E94740685EC84
:101D600092E00E94630642E0C701B60114D880EDFC
:101D700092E00E9474068CE593E00E94740684ED64
:101D800092E00E94630642E06A897B898C899D8982
:101D900002D88EEE92E00E9474068CE593E00E94D9
:101DA00074068FEF92E00E94630642E06E897F899D
:101DB000888D998D0E94CB068CE193E00E94740679
:101DC0008CE593E00E94740681E393E00E94740620
:101DD0008CE593E05DCE1092E6031092E50388EE69
:101DE00093E0A0E0B0E08093E7039093E803A09332
:101DF000E903B093EA0384E092E09093E4038093D4
:101E0000E30385EC90E09093F0038093EF0384EC80
:101E100090E09093F2038093F10380EC90E0909334
:101E2000F4038093F30381EC90E09093F6038093A6
:101E3000F50382EC90E09093F8038093F70386EC2F
:101E400090E09093FA038093F9031092FC031092B0
:101E5000FD031092FE031092FF0360E082E00E94F7
:101E60004704E4EEF2E0E491E093A504EEE9F2E049
:101E7000E491F0E0EE0FFF1FEE57FD4F8591949136
:101E80009093A7048093A6041092B0041092B20419
:101E90001092B104E0EBF4E0129284E0E83AF80723
:101EA000D9F781E293E09093A4048093A30485EA98
:101EB00094E0909398048093970410929604109263
:101EC000920489E08093930481E08093940480934A
:101ED000950483E0809385048BE080938604E5EE8F
:101EE000F2E0E491E0938704EFE9F2E0E491E0931B
:101EF000880480E89EE3A0E0B0E080938D04909396
:101F00008E04A0938F04B09390040895052E97FB40
:101F100016F400940FD057FD05D01ED007FC02D058
:101F200046F408C050954095309521953F4F4F4F4E
:101F30005F4F089590958095709561957F4F8F4F75
:101F40009F4F08952BD0A59F900DB49F900DA49FF7
:101F5000800D911D11240895A1E21A2EAA1BBB1B0E
:101F6000FD010DC0AA1FBB1FEE1FFF1FA217B30765
:101F7000E407F50720F0A21BB30BE40BF50B661F7B
:101F8000771F881F991F1A9469F76095709580953F
:101F900090959B01AC01BD01CF010895A29FB001B6
:101FA000B39FC001A39F700D811D1124911DB29F8D
:101FB000700D811D1124911D08955058BB27AA272B
:101FC0000ED070C161D130F066D120F031F49F3F66
:101FD00011F41EF456C10EF4E095E7FB4CC1E92F55
:101FE00072D180F3BA17620773078407950718F058
:101FF00071F49EF58AC10EF4E0950B2EBA2FA02D38
:102000000B01B90190010C01CA01A0011124FF27A5
:10201000591B99F0593F50F4503E68F11A16F040A0
:10202000A22F232F342F4427585FF3CF469537959F
:102030002795A795F0405395C9F77EF41F16BA0B64
:10204000620B730B840BBAF09150A1F0FF0FBB1F12
:10205000661F771F881FC2F70EC0BA0F621F731F5B
:10206000841F48F4879577956795B795F7959E3FB8
:1020700008F0B3CF9395880F08F09927EE0F979546
:1020800087950895D4D008F481E008950CD00AC152
:1020900002D140F0F9D030F021F45F3F19F0EBC0ED
:1020A000511134C1EEC00FD198F39923C9F35523D0
:1020B000B1F3951B550BBB27AA276217730784073B
:1020C00038F09F5F5F4F220F331F441FAA1FA9F3F1
:1020D00033D00E2E3AF0E0E830D091505040E695E3
:1020E000001CCAF729D0FE2F27D0660F771F881F44
:1020F000BB1F261737074807AB07B0E809F0BB0B33
:10210000802DBF01FF2793585F4F2AF09E3F510556
:1021100068F0B1C0FBC05F3FECF3983EDCF38695FE
:1021200077956795B795F7959F5FC9F7880F911DCC
:102130009695879597F90895E1E0660F771F881FB8
:10214000BB1F621773078407BA0720F0621B730B6B
:10215000840BBA0BEE1F88F7E0950895BCD088F089
:102160009F5790F0B92F9927B751A0F0D1F0660F83
:10217000771F881F991F1AF0BA95C9F712C0B1309E
:1021800081F0C3D0B1E00895C0C0672F782F8827B1
:10219000B85F39F0B93FCCF3869577956795B395DD
:1021A000D9F73EF490958095709561957F4F8F4F4C
:1021B0009F4F0895E89409C097FB3EF49095809551
:1021C000709561957F4F8F4F9F4F9923A9F0F92FFD
:1021D00096E9BB279395F695879577956795B7957B
:1021E000F111F8CFFAF4BB0F11F460FF1BC06F5F61
:1021F0007F4F8F4F9F4F16C0882311F096E911C073
:10220000772321F09EE8872F762F05C0662371F093
:1022100096E8862F70E060E02AF09A95660F771FA7
:10222000881FDAF7880F9695879597F90895990F83
:102230000008550FAA0BE0E8FEEF16161706E80790
:10224000F907C0F012161306E407F50798F0621BB1
:10225000730B840B950B39F40A2661F0232B242B86
:10226000252B21F408950A2609F4A140A6958FEFA5
:10227000811D811D089597F99F6780E870E060E0F7
:1022800008959FEF80EC089500240A94161617060F
:1022900018060906089500240A9412161306140657
:1022A00005060895092E0394000C11F4882352F0BA
:1022B000BB0F40F4BF2B11F460FF04C06F5F7F4F72
:1022C0008F4F9F4F089557FD9058440F551F59F059
:1022D0005F3F71F04795880F97FB991F61F09F3F13
:1022E00079F087950895121613061406551FF2CF3C
:1022F0004695F1DF08C0161617061806991FF1CF8C
:1023000086957105610508940895E894BB276627B2
:102310007727CB0197F908958ADF08F48FEF0895A6
:102320000BD0C0CFB1DF28F0B6DF18F0952309F04D
:10233000A2CFA7CF1124EACFC6DFA0F3959FD1F398
:10234000950F50E0551F629FF001729FBB27F00D63
:10235000B11D639FAA27F00DB11DAA1F649F6627B8
:10236000B00DA11D661F829F2227B00DA11D621F07
:10237000739FB00DA11D621F839FA00D611D221FC1
:10238000749F3327A00D611D231F849F600D211DA5
:10239000822F762F6A2F11249F5750408AF0E1F048
:1023A00088234AF0EE0FFF1FBB1F661F771F881F91
:1023B00091505040A9F79E3F510570F05CCFA6CFD9
:1023C0005F3FECF3983EDCF3869577956795B7957C
:1023D000F795E7959F5FC1F7FE2B880F911D9695A6
:1023E000879597F9089511F40EF44BCF42C073DF2F
:1023F000D0F39923D9F3CEF39F57550B87FF47D0DE
:102400000024A0E640EA900180585695979528F45C
:10241000805C660F771F881F20F026173707480754
:1024200030F4621B730B840B202931294A2BA695AB
:1024300017940794202531254A2758F7660F771FF0
:10244000881F20F026173707480730F4620B730BFC
:10245000840B200D311D411DA09581F7B901842FFA
:102460009158880F969587950895E1DE880B990B12
:1024700008959F3F31F0915020F4879577956795A7
:10248000B795880F911D9695879597F90895915066
:102490005040660F771F881FD2F70895EE0FFF1F79
:1024A000881F8BBF0790F691E02D199481E090E092
:0824B000F89400C0F894FFCF7E
:1024B800000000005D02C701F601A3022702050221
:1024C80019022520434F20696E2061697200496E08
:1024D8007369646520456E67696E652050726F6226
:1024E800652054656D70726174757265005265710E
:1024F80075657374696E672074656D706572617453
:10250800757265732066726F6D2070726F626520D8
:1025180073656E736F72202E2E2E00444F4E450049
:1025280054656D706572617475726520666F726D41
:102538002074686520456E67696E652069733A2066
:10254800000D0A0054656D706572617475726520BE
:10255800616E642048756D69646974792066726F6C
:102568006D20456E67696E6520636F6D706172746A
:102578006D656E740048756D69646974793A2000F8
:1025880020252E0054656D70657261747572652022
:10259800696E2043656C73697573203A2000204486
:1025A8006567726565732043656C7369757300545C
:1025B800656D706572617475726520696E2046611B
:1025C8006872656E68656974203A20002044656702
:1025D800726565732046616872656E686569742006
:1025E8000020456E64206F662072656164696E67BD
:1025F80020646174612066726F6D2050726576691F
:102608006F757320696E74657276616C2020004660
:1026180061696C656420746F2072656164206672FC
:102628006F6D2073656E736F7273210053746172DE
:1026380074206F662072656164696E6720646174D6
:10264800612066726F6D204E657720696E746572C1
:1026580076616C20200047617320636F6E63656E3E
:1026680074726174696F6E2072656164696E672047
:1026780066726F6D2065786861757374006E616E3F
:0A26880000696E66006F76660000C0
:020000023000CC
:10E000000D9489F10D94B2F10D94B2F10D94B2F129
:10E010000D94B2F10D94B2F10D94B2F10D94B2F1F0
:10E020000D94B2F10D94B2F10D94B2F10D94B2F1E0
:10E030000D94B2F10D94B2F10D94B2F10D94B2F1D0
:10E040000D94B2F10D94B2F10D94B2F10D94B2F1C0
:10E050000D94B2F10D94B2F10D94B2F10D94B2F1B0
:10E060000D94B2F10D94B2F10D94B2F10D94B2F1A0
:10E070000D94B2F10D94B2F10D94B2F10D94B2F190
:10E080000D94B2F10D94B2F10D94B2F10D94B2F180
:10E090000D94B2F10D94B2F10D94B2F10D94B2F170
:10E0A0000D94B2F10D94B2F10D94B2F10D94B2F160
:10E0B0000D94B2F10D94B2F10D94B2F10D94B2F150
:10E0C0000D94B2F10D94B2F10D94B2F10D94B2F140
:10E0D0000D94B2F10D94B2F10D94B2F10D94B2F130
:10E0E0000D94B2F141546D656761323536300041AF
:10E0F000726475696E6F206578706C6F72657220DE
:10E1000073746B3530305632206279204D4C530099
:10E11000426F6F746C6F616465723E004875683F52
:10E1200000436F6D70696C6564206F6E203D200048
:10E130004350552054797065202020203D20005FF9
:10E140005F4156525F415243485F5F3D2000415658
:10E1500052204C696243205665723D20004743437C
:10E160002056657273696F6E203D20004350552024
:10E1700049442020202020203D20004C6F7720663D
:10E18000757365202020203D20004869676820665F
:10E190007573652020203D200045787420667573D6
:10E1A00065202020203D20004C6F636B2066757336
:10E1B000652020203D20004D617220203720323024
:10E1C000313300312E362E3800342E332E350056A2
:10E1D00023202020414444522020206F7020636F70
:10E1E00064652020202020696E73747275637469E1
:10E1F0006F6E2061646472202020496E74657272B3
:10E20000757074006E6F20766563746F7200726A49
:10E210006D702020006A6D70200057686174207056
:10E220006F72743A00506F7274206E6F7420737541
:10E2300070706F72746564004D7573742062652030
:10E2400061206C6574746572002000577269747483
:10E25000696E672045450052656164696E672045B7
:10E26000450045452065727220636E743D00504F35
:10E27000525400303D5A65726F2061646472003FF1
:10E280003D43505520737461747300403D454550C3
:10E29000524F4D207465737400423D426C696E6B41
:10E2A000204C454400453D44756D70204545505215
:10E2B0004F4D00463D44756D7020464C415348001B
:10E2C000483D48656C70004C3D4C69737420492F83
:10E2D0004F20506F72747300513D51756974005234
:10E2E0003D44756D702052414D00563D73686F7707
:10E2F00020696E7465727275707420566563746FF0
:10E30000727300593D506F727420626C696E6B00BD
:10E310002A0011241FBECFEFD1E2DEBFCDBF01E046
:10E320000CBF12E0A0E0B2E0EEE1FDEF03E00BBFB6
:10E3300002C007900D92A030B107D9F712E0A0E01B
:10E34000B2E001C01D92AE30B107E1F70F9460F367
:10E350000D948DFE01E20EBF0FEF0DBF11241FBE05
:10E360000D9460F30D9400F020E030E040ED57E0B4
:10E3700005C0FA013197F1F72F5F3F4F2817390792
:10E38000C0F308959C01260F311DC901A0E0B0E043
:10E390002F5F3F4FABBFFC018791882361F08093D3
:10E3A000C6008091C00086FFFCCF8091C0008064D1
:10E3B0008093C000EACF08958DE08093C6008091DD
:10E3C000C00086FFFCCF8091C00080648093C000B5
:10E3D0008AE08093C6008091C00086FFFCCF8091C8
:10E3E000C00080648093C00008950F94C2F10F9420
:10E3F000DCF10895FC019081992359F09093C600B7
:10E400008091C00086FFFCCF8091C0008064809323
:10E41000C0003196992379F70895282F982F929567
:10E420009F70892F805D8A3308F0895F8093C600D2
:10E430008091C00086FFFCCF8091C00080648093F3
:10E44000C000822F8F70982F905D9A3308F0995FEB
:10E450009093C6008091C00086FFFCCF8091C000E1
:10E4600080648093C00008959C01FB01853691056E
:10E470001CF46330710594F0C90164E670E00F94F8
:10E480002EFE605D7F4F6093C6008091C00086FFC6
:10E49000FCCF8091C00080648093C0002B30310598
:10E4A00014F43297B4F0C90164E670E00F942EFEC4
:10E4B0006AE070E00F942EFE605D7F4F6093C600AF
:10E4C0008091C00086FFFCCF8091C0008064809363
:10E4D000C000C9016AE070E00F942EFEC0968093E0
:10E4E000C6008091C00086FFFCCF8091C000806490
:10E4F0008093C00008951F93182F8EE692EE60E07F
:10E500000F94C2F11093C6008091C00086FFFCCF2B
:10E510008091C00080648093C0000F94DCF11F9153
:10E5200008952F923F924F925F926F927F928F92B7
:10E530009F92AF92BF92CF92DF92EF92FF920F9392
:10E540001F93DF93CF93CDB7DEB762970FB6F894E2
:10E55000DEBF0FBECDBF382E622ECA01DB015C01CB
:10E560006D01772420E2222E2E010894411C511CBB
:10E570008BC081E0A81680E0B80681E0C80680E084
:10E58000D80628F0C601AA27BB270F940DF2BB2797
:10E59000AD2D9C2D8B2D0F940DF28A2D0F940DF225
:10E5A0002092C6008091C00086FFFCCF8091C00001
:10E5B00080648093C0009DE29093C6008091C0006B
:10E5C00086FFFCCF8091C00080648093C0002092C1
:10E5D000C6008091C00086FFFCCF8091C00080649F
:10E5E0008093C00019828601750188249924A1E0D6
:10E5F0003A1651F03A1620F0B2E03B1661F409C029
:10E600000BBFF701779007C0C7010F9477FE782EF4
:10E6100002C0F7017080872D0F940DF22092C60082
:10E620008091C00086FFFCCF8091C0008064809301
:10E63000C000872D8052F401EF70F0708F3520F408
:10E64000E40DF51D708204C0E40DF51D8EE280839B
:10E650000894E11CF11C011D111D0894811C911CE2
:10E6600090E18916910409F0C2CF80E190E0A0E02A
:10E67000B0E0A80EB91ECA1EDB1E198AC2010F9493
:10E68000FAF10F94DCF16A94662009F072CF629679
:10E690000FB6F894DEBF0FBECDBFCF91DF911F91B3
:10E6A0000F91FF90EF90DF90CF90BF90AF909F9031
:10E6B0008F907F906F905F904F903F902F90089534
:10E6C0002F923F924F925F926F927F928F929F9282
:10E6D000AF92BF92CF92DF92EF92FF920F931F9370
:10E6E000DF93CF93CDB7DEB7CD53D1400FB6F894BB
:10E6F000DEBF0FBECDBF01E20EBF0FEF0DBF94B75F
:10E70000F894A89514BE80916000886180936000A1
:10E7100010926000789493FF05C0E0910002F091A0
:10E7200001021995279A2F9A8091C00082608093E8
:10E73000C00080E18093C40088E18093C1000000A4
:10E74000EE24FF24870144E0A42EB12CCC24DD2448
:10E7500024C0C5010197F1F70894E11CF11C011DCB
:10E76000111D21E2E2162EE4F20620E0020720E06D
:10E77000120718F031E0C32ED12CC801B70127ECE5
:10E780003BE140E050E00F9441FE611571058105C9
:10E79000910519F485B1805885B98091C00087FD35
:10E7A00003C0C114D104A9F2A6014F5F5F4FC25E3E
:10E7B000DE4F59834883CE51D140C25EDE4F8881FF
:10E7C0009981CE51D140019711F00D9410FEC05D9A
:10E7D000DE4F19821882C053D14060E0C15DDE4F28
:10E7E0001882CF52D14088249924C35DDE4F19820C
:10E7F0001882CD52D140C05EDE4F188219821A8233
:10E800001B82C052D140CE5CDE4F188219821A8220
:10E810001B82C253D140EE24FF2487010BBFF701B6
:10E8200007911691C45CDE4F19830883CC53D14005
:10E830000D940BFEC25EDE4F28813981CE51D1404E
:10E840002130310509F52091C600C25EDE4F1982E4
:10E850001882CE51D14022C02F5F3F4F4F4F5F4FA4
:10E86000213082E138078AE7480780E0580780F0C6
:10E87000C45CDE4FE881F981CC53D140EF5FFF4F9C
:10E8800019F0EE27FF27099420E030E040E050E047
:10E890008091C00087FFE0CF2091C600C35DDE4FAE
:10E8A00048815981CD52D1404F5F5F4FC35DDE4FEC
:10E8B00059834883CD52D140213209F063C64A3092
:10E8C000510508F05FC60894811C911C53E0851621
:10E8D000910409F059C600E010E018C081E280936D
:10E8E000C6008091C00086FFFCCF8091C00080648C
:10E8F0008093C0002F5F3F4F2931310579F70F9486
:10E90000DCF10F5F1F4F0530110519F020E030E0FA
:10E91000E5CF10920A0210920B0210920C02109294
:10E920000D02109206021092070210920802109235
:10E930000902109202021092030210920402109235
:10E9400005028FEE90EE60E00F94F5F180E191EE1C
:10E9500060E00F94C2F18091C00087FFFCCF9091DE
:10E96000C600903608F09F759032B8F09093C600BC
:10E970008091C00086FFFCCF8091C00080648093AE
:10E98000C000A0E2A093C6008091C00086FFFCCF2B
:10E990008091C00080648093C000983409F4D7C18E
:10E9A0009934B8F4923409F459C1933458F490333B
:10E9B00019F1903308F4E3C59F33A1F1903409F0C5
:10E9C000DEC5BDC0953409F470C1963409F0D7C5D1
:10E9D00098C1923509F42BC2933538F49C3409F46C
:10E9E000F5C1913509F0CBC518C2963509F445C279
:10E9F000993509F0C4C567C483E792EE62E00F94CD
:10EA0000F5F110920602109207021092080210927D
:10EA1000090210920A0210920B0210920C0210923C
:10EA20000D0213C18FE792EE62E00F94F5F18FEEC5
:10EA300090EE60E00F94F5F181E291EE60E00F94CA
:10EA4000C2F187EB91EE60E00F94F5F180E391EE77
:10EA500060E00F94C2F184EE90EE60E00F94F5F167
:10EA60008FE391EE60E00F94C2F186E090E061E008
:10EA700070E00F9434F20F94DCF18DE591EE60E0DC
:10EA80000F94C2F189EC91EE60E00F94F5F18EE401
:10EA900091EE60E00F94C2F183EC91EE60E00F9490
:10EAA000F5F18CE691EE60E00F94C2F18EE10F94E7
:10EAB0000DF288E90F940DF281E00F940DF20F949E
:10EAC000DCF18BE791EE60E00F94C2F119E0E0E039
:10EAD000F0E010935700E4918E2F0F940DF20F94F5
:10EAE000DCF18AE891EE60E00F94C2F1E3E0F0E03F
:10EAF00010935700E4918E2F0F940DF20F94DCF1D8
:10EB000089E991EE60E00F94C2F1E2E0F0E0109349
:10EB10005700E4918E2F0F940DF20F94DCF188EAE8
:10EB200091EE60E00F94C2F1E1E0F0E01093570045
:10EB30001491812F0F940DF20F94DCF107CF8BE825
:10EB400092EE62E00F94F5F18BE492EE60E00F94A8
:10EB5000F5F10F94DCF100E010E019C0C8016F2D51
:10EB60000F947FFEFF2031F489E492EE60E00F9471
:10EB7000C2F10BC0F092C6008091C00086FFFCCFAE
:10EB80008091C00080648093C0000F5F1F4FC80158
:10EB900081519F41A0E0B0E0ABBFFC01F790BAE229
:10EBA000FB1621F0E2E000301E07C1F60F94DCF105
:10EBB0000F94DCF187E592EE60E00F94F5F10F948D
:10EBC000DCF1CC24DD2400E010E01EC0C8010F946D
:10EBD00077FEF82E882331F489E492EE60E00F94FA
:10EBE000C2F10BC08093C6008091C00086FFFCCFAD
:10EBF0008091C00080648093C000FE1419F00894D6
:10EC0000C11CD11C0F5F1F4FC80181519F41A0E063
:10EC1000B0E0ABBFFC01E790FAE2EF1621F022E092
:10EC20000030120799F60F94DCF10F94DCF182E6C4
:10EC300092EE60E00F94C2F1C60161E070E00F94C3
:10EC400034F20F94DCF10F94DCF110920202109276
:10EC50000302109204021092050278CE89E992EE26
:10EC600062E00F94F5F1279A2F9A16C02F9880E052
:10EC700090E0E0EDF7E03197F1F7019684369105E9
:10EC8000C1F72F9A80E090E0E0EDF7E03197F1F7DF
:10EC9000019684369105C1F78091C00087FFE6CFC9
:10ECA0008091C00087FFFCCF64C485EA92EE62E0E9
:10ECB0000F94F5F140910202509103026091040219
:10ECC0007091050281E020E10F9491F2809102029F
:10ECD00090910302A0910402B091050280509F4FD1
:10ECE000AF4FBF4F8093020290930302A0930402A0
:10ECF000B093050280509041A040B04008F426CE69
:10ED0000A4CF83EB92EE62E00F94F5F140910602FE
:10ED100050910702609108027091090280E020E1A1
:10ED20000F9491F28091060290910702A09108023F
:10ED3000B091090280509F4FAF4FBF4F80930602A2
:10ED400090930702A0930802B0930902FFCD80ECD4
:10ED500092EE62E00F94F5F183E792EE60E00F949B
:10ED6000F5F18FE792EE60E00F94F5F18BE892EE0B
:10ED700060E00F94F5F189E992EE60E00F94F5F10F
:10ED800085EA92EE60E00F94F5F183EB92EE60E09D
:10ED90000F94F5F180EC92EE60E00F94F5F187ECC2
:10EDA00092EE60E00F94F5F188ED92EE60E00F9442
:10EDB000F5F18FED92EE60E00F94F5F18AEE92EEB0
:10EDC00060E00F94F5F183E093EEBDCD87EC92EE19
:10EDD00062E00F94F5F181E40F947BF282E40F94EA
:10EDE0007BF283E40F947BF284E40F947BF285E45E
:10EDF0000F947BF286E40F947BF287E40F947BF20E
:10EE000088E40F947BF28AE40F947BF28BE40F94F6
:10EE10007BF28CE40F947BF299CD88ED92EE62E068
:10EE20000F94F5F1772473948824992409C48FED05
:10EE300092EE62E00F94F5F140910A0250910B02BC
:10EE400060910C0270910D0282E020E10F9491F22A
:10EE500080910A0290910B02A0910C02B0910D02D8
:10EE600080509F4FAF4FBF4F80930A0290930B0289
:10EE7000A0930C02B0930D0269CD8AEE92EE62E08F
:10EE80000F94F5F184EE90EE60E00F94F5F18FECC5
:10EE900091EE60E00F94F5F1662477244301CC5D98
:10EEA000DE4F19821882C452D140D401C301B695F5
:10EEB000A79597958795CA5DDE4F88839983AA8326
:10EEC000BB83C652D140CC5DDE4FA881B981C4520C
:10EED000D1401196CC5DDE4FB983A883C452D14096
:10EEE000CD0162E070E00F9434F2B0E2B093C6005E
:10EEF0008091C00086FFFCCF8091C0008064809329
:10EF0000C000EDE2E093C6008091C00086FFFCCF18
:10EF10008091C00080648093C000F0E2F093C6004E
:10EF20008091C00086FFFCCF8091C00080648093F8
:10EF3000C000CA5DDE4FE880F9800A811B81C6529D
:10EF4000D140BB27A12F902F8F2D0F940DF2CA5DBA
:10EF5000DE4F8881C652D1400F940DF2B0E2FB2EF5
:10EF6000F092C6008091C00086FFFCCF8091C00067
:10EF700080648093C0000DE30093C6008091C000C0
:10EF800086FFFCCF8091C00080648093C00010E2B7
:10EF90001093C6008091C00086FFFCCF8091C00016
:10EFA00080648093C0008BBEF3012791C65DDE4F65
:10EFB0002883CA52D140A22EBB24CC24DD2408943D
:10EFC000611C711C811C911C8BBEF3018791282E42
:10EFD0003324442455240894611C711C811C911C09
:10EFE0008BBEF3013791C55DDE4F3883CB52D140E4
:10EFF0000894611C711C811C911C8BBEF30147910C
:10F00000C45DDE4F4883CC52D140ADEFEA2EAFEF66
:10F01000FA2EAFEF0A2FAFEF1A2F6E0C7F1C801E57
:10F02000911E142D032DF22CEE24EA0CFB1C0C1D5A
:10F030001D1D0F940DF220E22093C6008091C000A8
:10F0400086FFFCCF8091C00080648093C000C65DC5
:10F05000DE4F8881CA52D1400F940DF230E23093D6
:10F06000C6008091C00086FFFCCF8091C000806404
:10F070008093C000C45DDE4F8881CC52D1400F9494
:10F080000DF240E24093C6008091C00086FFFCCFA5
:10F090008091C00080648093C000C55DDE4F888190
:10F0A000CB52D1400F940DF250E25093C6008091A4
:10F0B000C00086FFFCCF8091C00080648093C000B8
:10F0C0008FEFE8168FEFF80680E0080780E018075A
:10F0D00031F484E092EE60E00F94C2F1DFC0D80119
:10F0E000C7018070907CA070B0708050904CA040A0
:10F0F000B040D1F52FEF3FE340E050E0E222F322B1
:10F1000004231523CA5DDE4FA880B980CA80DB8046
:10F11000C652D140AE0CBF1CC01ED11EAA0CBB1CD7
:10F12000CC1CDD1C8EE092EE60E00F94C2F1BB2798
:10F13000A12F902F8F2D0F940DF28E2D0F940DF285
:10F1400030E23093C6008091C00086FFFCCF8091F2
:10F15000C00080648093C0004EE34093C60080915D
:10F16000C00086FFFCCF87C08EE09EEFA0E0B0E03D
:10F17000E822F9220A231B239CE0E91694E9F90608
:10F1800090E0090790E0190709F088C0C45DDE4FE0
:10F19000A881CC52D140EA2EFF2400E010E0102FCD
:10F1A0000F2DFE2CEE24C55DDE4FB881CB52D14031
:10F1B000EB0EF11C011D111DD601C501817090706F
:10F1C000A070B070DC0199278827E80EF91E0A1F8D
:10F1D0001B1F20EF30E040E050E0A222B322C42207
:10F1E000D52241E1AA0CBB1CCC1CDD1C4A95D1F7F1
:10F1F000EA0CFB1C0C1D1D1D81E090E0A0E0B0E0BE
:10F20000282239224A225B2235E1220C331C441C7D
:10F21000551C3A95D1F7E20CF31C041D151D57013E
:10F220006801AA0CBB1CCC1CDD1C85E192EE60E0E1
:10F230000F94C2F1C801AA27BB270F940DF2BB2778
:10F24000A12F902F8F2D0F940DF28E2D0F940DF274
:10F2500090E29093C6008091C00086FFFCCF809121
:10F26000C00080648093C000AEE3A093C60080918C
:10F27000C00086FFFCCF8091C00080648093C000F6
:10F28000C601AA27BB270F940DF2BB27AD2D9C2DDD
:10F290008B2D0F940DF28A2D0F940DF20F94DCF14B
:10F2A000CC5DDE4FE881F981C452D140F99709F471
:10F2B0004DCBF4E0EF2EF12C012D112D6E0C7F1CA7
:10F2C000801E911EF2CD83E093EE62E00F94F5F183
:10F2D0008AE192EE60E00F94C2F18091C00087FF56
:10F2E000FCCF1091C6001F751093C6008091C0001E
:10F2F00086FFFCCF8091C00080648093C0000F9493
:10F30000DCF1812F81548A3108F036C1163409F4BA
:10F3100095C0173490F4133409F44EC0143430F40B
:10F320001134F1F0123409F01DC130C0143409F465
:10F3300059C0153409F016C16BC01A3409F4C4C0A1
:10F340001B3438F4173409F48FC0183409F00AC19B
:10F35000A1C01B3409F4D2C01C3409F003C1E8C0B9
:10F360008FEF81B90DC082B1809582B980E090E0C5
:10F37000E0EDF7E03197F1F70196883C9105C1F790
:10F380008091C00087FFEFCF12B8EFC08FEF84B934
:10F390000DC085B1809585B980E090E0E0EDF7E0A3
:10F3A0003197F1F70196883C9105C1F78091C00033
:10F3B00087FFEFCF15B8D9C08FEF87B90DC088B1DF
:10F3C000809588B980E090E0E0EDF7E03197F1F7C3
:10F3D0000196883C9105C1F78091C00087FFEFCF6F
:10F3E00018B8C3C08FEF8AB90DC08BB180958BB9A7
:10F3F00080E090E0E0EDF7E03197F1F70196883C8E
:10F400009105C1F78091C00087FFEFCF1BB8ADC059
:10F410008FEF8DB90DC08EB180958EB980E090E0F0
:10F42000E0EDF7E03197F1F70196883C9105C1F7DF
:10F430008091C00087FFEFCF1EB897C08FEF80BBD1
:10F440000DC081B3809581BB80E090E0E0EDF7E0F6
:10F450003197F1F70196883C9105C1F78091C00082
:10F4600087FFEFCF11BA81C08FEF83BB0DC084B38C
:10F47000809584BB80E090E0E0EDF7E03197F1F714
:10F480000196883C9105C1F78091C00087FFEFCFBE
:10F4900014BA6BC08FEF809301010FC080910201FD
:10F4A00080958093020180E090E0E0EDF7E03197F5
:10F4B000F1F70196883C9105C1F78091C00087FF64
:10F4C000EDCF1092020151C08FEF809304010FC065
:10F4D0008091050180958093050180E090E0E0ED4A
:10F4E000F7E03197F1F70196883C9105C1F78091DB
:10F4F000C00087FFEDCF1092050137C08FEF8093DA
:10F5000007010FC08091080180958093080180E079
:10F5100090E0E0EDF7E03197F1F70196883C910536
:10F52000C1F78091C00087FFEDCF109208011DC088
:10F530008FEF80930A010FC080910B01809580931B
:10F540000B0180E090E0E0EDF7E03197F1F70196F4
:10F55000883C9105C1F78091C00087FFEDCF1092E4
:10F560000B0103C085E292EEEEC98091C00087FFD7
:10F57000FCCF8091C600EAC988E392EEE4C98CE131
:10F5800091EEE1C988249924933011F1943028F444
:10F59000913089F09230B8F408C0953061F195301F
:10F5A000F0F0963009F048C043C02B3109F042C951
:10F5B00091E06BE13FC96227C15DDE4F2883CF52E6
:10F5C000D14092E037C9B22FA0E0622793E032C960
:10F5D000822F90E0A82BB92B622794E02BC92E3004
:10F5E00009F039C3622795E0C05DDE4F19821882A9
:10F5F000C053D1401FC9E1E0F0E0EC0FFD1FC05D3A
:10F60000DE4F08811981C053D140E00FF11F2083E4
:10F610000F5F1F4FC05DDE4F19830883C053D14079
:10F6200062270A171B0709F005C9D80196E002C92D
:10F63000261709F010C303C0973009F0FBC87724E0
:10F640009981933109F412C19431C8F4963009F4C8
:10F65000D8C0973050F4923009F406C1933009F4C1
:10F660006DC0913009F059C253C0913109F477C08F
:10F67000923108F0BBC0903109F04FC2F5C098310B
:10F6800009F487C0993150F4953109F4EFC09531F0
:10F6900008F4C6C1963109F040C2C2C19A3109F4DA
:10F6A0006CC09A3108F491C09B3109F45BC09D3164
:10F6B00009F033C29D81903359F48F81882311F46E
:10F6C0009EE11CC0813011F091E018C098E916C08D
:10F6D000892F807591F0903539F4E0E0F0E089E011
:10F6E0008093570094910AC0983539F4E3E0F0E034
:10F6F00089E080935700949101C090E01A821B82A8
:10F700008D818C831D829E831F8227E030E009C299
:10F710001A8288E08B8381E48C8386E58D8382E581
:10F720008E8389E48F8383E5888780E589878FE5E9
:10F730008A8782E38B872BE030E0F3C18A818139AD
:10F7400041F0823941F0803911F48FE005C080E04A
:10F7500003C082E001C08AE01A828B8344C0772410
:10F76000739482C08D81882311F48EE12CC0813086
:10F7700011F081E028C088E926C01A82E1E0F0E0BB
:10F7800089E08093570084918B831C8224E030E0D1
:10F79000C8C18B81803589F48C81883039F4E2E0EE
:10F7A000F0E089E08093570084910DC0E0E0F0E044
:10F7B00089E080935700849106C0E3E0F0E089E09F
:10F7C0008093570084911A82DFCF8D81836C99E0FA
:10F7D000E1E0F0E0082E90935700E89507B600FCB2
:10F7E000FDCF1A821B8223E030E09BC180EC8A832C
:10F7F000CE5CDE4F188219821A821B82C253D1401E
:10F800008EC18A8190E0A0E0B0E0582F44273327D2
:10F8100022278B8190E0A0E0B0E0DC0199278827C7
:10F82000282B392B4A2B5B2B8D8190E0A0E0B0E098
:10F83000282B392B4A2B5B2B8C8190E0A0E0B0E089
:10F84000BA2FA92F982F8827282B392B4A2B5B2BCF
:10F85000220F331F441F551FC05EDE4F288339839C
:10F860004A835B83C052D1401A8259C13A81C95C34
:10F87000DE4F3883C753D140CA5CDE4F1882C6536F
:10F88000D1408B81C82EDD24CA5CDE4F488159816E
:10F89000C653D140C42AD52A933109F082C0CE5C28
:10F8A000DE4F88819981AA81BB81C253D1408050AB
:10F8B000904CA340B04030F583E0CE5CDE4FE88052
:10F8C000F9800A811B81C253D140F70100935B008C
:10F8D00080935700E89507B600FCFDCFCE5CDE4F65
:10F8E000088119812A813B81C253D14000501F4FAA
:10F8F0002F4F3F4FCE5CDE4F088319832A833B8313
:10F90000C253D140C05EDE4F488159816A817B81FC
:10F91000C052D140DE011B9631E08C9111962C91A2
:10F9200011971296C75CDE4F2883C953D140C85C3B
:10F93000DE4F1882C853D14090E0C85CDE4FE881AA
:10F94000F981C853D1408E2B9F2B0C01FA01609393
:10F950005B0030935700E89511244E5F5F4F6F4F67
:10F960007F4F0EEFE02E0FEFF02ECE0CDF1CC114F8
:10F97000D10499F685E0C05EDE4F088119812A81A5
:10F980003B81C052D140F80120935B008093570027
:10F99000E89507B600FCFDCF81E180935700E8951C
:10F9A00035C0C05EDE4F88819981AA81BB81C0527B
:10F9B000D140B695A795979587957C018601ABE0D8
:10F9C000AA2EB12CAC0EBD1E0BC0D5016D915D01F0
:10F9D000C7010F947FFE0894E11CF11C01501040F8
:10F9E0000115110591F7A60160E070E0440F551F65
:10F9F000661F771FC05EDE4FE880F9800A811B8199
:10FA0000C052D1404E0D5F1D601F711F1A82C05E33
:10FA1000DE4F488359836A837B83C052D1407FC0C5
:10FA2000FA80C55CDE4FF882CB53D140C65CDE4F16
:10FA30001882CA53D1408B81C82EDD24C65CDE4FAC
:10FA400008811981CA53D140C02AD12A1A828981DA
:10FA5000BE016D5F7F4F843121F59601C05EDE4FA0
:10FA6000E880F9800A811B81C052D1400BBFF701A9
:10FA700087919691DB018C9311969C936E5F7F4FDB
:10FA8000D801C7010296A11DB11DC05EDE4F88835B
:10FA90009983AA83BB83C052D14022503040F1F6F3
:10FAA00036C0C05EDE4F288139814A815B81C052F9
:10FAB000D1400894C108D108760100E010E0089414
:10FAC000C11CD11C0894E11CF11C011D111DE20E8A
:10FAD000F31E041F151F21BDBB27A52F942F832FB5
:10FAE00082BD2F5F3F4F4F4F5F4FF89A80B5DB01CC
:10FAF0008D93BD012E153F054007510761F7C05E8C
:10FB0000DE4F288339834A835B83C052D1409601FC
:10FB10002D5F3F4FFB01108204C080EC8A8322E0FE
:10FB200030E08BE18093C6008091C00086FFFCCF5F
:10FB30008091C00080648093C000C15DDE4FF88179
:10FB4000CF52D140F093C6008091C00086FFFCCF19
:10FB50008091C00080648093C000432F3093C60022
:10FB60008091C00086FFFCCF8091C00080648093AC
:10FB7000C000922F2093C6008091C00086FFFCCF6A
:10FB80008091C00080648093C0008EE08093C600A6
:10FB90008091C00086FFFCCF8091C000806480937C
:10FBA000C00065E1C15DDE4FE880CF52D1406E25D7
:10FBB00069276427FE01319610C090819093C6009A
:10FBC0008091C00086FFFCCF31968091C000806498
:10FBD0008093C0006927215030402115310569F715
:10FBE0006093C6008091C00086FFFCCF8091C0006A
:10FBF00080648093C00085B1805885B9772081F4F6
:10FC0000C15DDE4F0881CF52D1400F5FC15DDE4F35
:10FC10000883CF52D14090E0A0E0B0E00D941AF4F8
:10FC200027982F9880E090E020ED37E0F901319798
:10FC3000F1F7019684369105C9F700008091C00064
:10FC40008D7F8093C00081E180935700E895EE2777
:10FC5000FF270994FFCF90E00D941AF497FB092E2B
:10FC600007260AD077FD04D02ED006D000201AF443
:10FC7000709561957F4F0895F6F7909581959F4F08
:10FC80000895A1E21A2EAA1BBB1BFD010DC0AA1FDD
:10FC9000BB1FEE1FFF1FA217B307E407F50720F0F5
:10FCA000A21BB30BE40BF50B661F771F881F991F70
:10FCB0001A9469F760957095809590959B01AC01B9
:10FCC000BD01CF010895AA1BBB1B51E107C0AA1FAC
:10FCD000BB1FA617B70710F0A61BB70B881F991FED
:10FCE0005A95A9F780959095BC01CD010895F99991
:10FCF000FECF92BD81BDF89A992780B50895262F31
:10FD0000F999FECF1FBA92BD81BD20BD0FB6F89400
:0EFD1000FA9AF99A0FBE01960895F894FFCF63
:040000033000E000E9
:00000001FF
